{
  "abi": [
    {
      "inputs": [
        {
          "internalType": "address",
          "name": "_teamAddress",
          "type": "address"
        },
        {
          "internalType": "address",
          "name": "_marketingAddress",
          "type": "address"
        },
        {
          "internalType": "address",
          "name": "_partnerAdvisorAddress",
          "type": "address"
        },
        {
          "internalType": "address",
          "name": "_publicAddress",
          "type": "address"
        },
        {
          "internalType": "address",
          "name": "_bonusReferralAddress",
          "type": "address"
        }
      ],
      "stateMutability": "nonpayable",
      "type": "constructor"
    },
    {
      "inputs": [],
      "name": "InSufficientBalance",
      "type": "error"
    },
    {
      "inputs": [],
      "name": "MinimumTokenToBuyNotReached",
      "type": "error"
    },
    {
      "inputs": [],
      "name": "NotEnoughToken",
      "type": "error"
    },
    {
      "anonymous": false,
      "inputs": [
        {
          "indexed": true,
          "internalType": "address",
          "name": "previousOwner",
          "type": "address"
        },
        {
          "indexed": true,
          "internalType": "address",
          "name": "newOwner",
          "type": "address"
        }
      ],
      "name": "OwnershipTransferred",
      "type": "event"
    },
    {
      "anonymous": false,
      "inputs": [
        {
          "indexed": false,
          "internalType": "address",
          "name": "buyer",
          "type": "address"
        },
        {
          "indexed": false,
          "internalType": "uint256",
          "name": "numberOfToken",
          "type": "uint256"
        }
      ],
      "name": "TokenSold",
      "type": "event"
    },
    {
      "inputs": [
        {
          "internalType": "address",
          "name": "_tokenAddress",
          "type": "address"
        }
      ],
      "name": "addTokenAddress",
      "outputs": [
        {
          "internalType": "bool",
          "name": "",
          "type": "bool"
        }
      ],
      "stateMutability": "nonpayable",
      "type": "function"
    },
    {
      "inputs": [],
      "name": "bonusReferralAddress",
      "outputs": [
        {
          "internalType": "address",
          "name": "",
          "type": "address"
        }
      ],
      "stateMutability": "view",
      "type": "function"
    },
    {
      "inputs": [
        {
          "internalType": "uint256",
          "name": "tokenAmount",
          "type": "uint256"
        }
      ],
      "name": "buy",
      "outputs": [
        {
          "internalType": "bool",
          "name": "",
          "type": "bool"
        }
      ],
      "stateMutability": "payable",
      "type": "function"
    },
    {
      "inputs": [],
      "name": "endSale",
      "outputs": [
        {
          "internalType": "bool",
          "name": "",
          "type": "bool"
        }
      ],
      "stateMutability": "nonpayable",
      "type": "function"
    },
    {
      "inputs": [],
      "name": "isPrivateSale",
      "outputs": [
        {
          "internalType": "bool",
          "name": "",
          "type": "bool"
        }
      ],
      "stateMutability": "view",
      "type": "function"
    },
    {
      "inputs": [],
      "name": "marketingAddress",
      "outputs": [
        {
          "internalType": "address",
          "name": "",
          "type": "address"
        }
      ],
      "stateMutability": "view",
      "type": "function"
    },
    {
      "inputs": [],
      "name": "minimumSellToken",
      "outputs": [
        {
          "internalType": "uint256",
          "name": "",
          "type": "uint256"
        }
      ],
      "stateMutability": "view",
      "type": "function"
    },
    {
      "inputs": [],
      "name": "owner",
      "outputs": [
        {
          "internalType": "address",
          "name": "",
          "type": "address"
        }
      ],
      "stateMutability": "view",
      "type": "function"
    },
    {
      "inputs": [],
      "name": "partnerAdvisorAddress",
      "outputs": [
        {
          "internalType": "address",
          "name": "",
          "type": "address"
        }
      ],
      "stateMutability": "view",
      "type": "function"
    },
    {
      "inputs": [],
      "name": "privateSalePrice",
      "outputs": [
        {
          "internalType": "uint256",
          "name": "",
          "type": "uint256"
        }
      ],
      "stateMutability": "view",
      "type": "function"
    },
    {
      "inputs": [],
      "name": "publicAddress",
      "outputs": [
        {
          "internalType": "address",
          "name": "",
          "type": "address"
        }
      ],
      "stateMutability": "view",
      "type": "function"
    },
    {
      "inputs": [],
      "name": "publicSalePrice",
      "outputs": [
        {
          "internalType": "uint256",
          "name": "",
          "type": "uint256"
        }
      ],
      "stateMutability": "view",
      "type": "function"
    },
    {
      "inputs": [],
      "name": "renounceOwnership",
      "outputs": [],
      "stateMutability": "nonpayable",
      "type": "function"
    },
    {
      "inputs": [
        {
          "internalType": "uint256",
          "name": "minimumToken",
          "type": "uint256"
        }
      ],
      "name": "setMinimumSaleToken",
      "outputs": [
        {
          "internalType": "bool",
          "name": "",
          "type": "bool"
        }
      ],
      "stateMutability": "nonpayable",
      "type": "function"
    },
    {
      "inputs": [
        {
          "internalType": "uint256",
          "name": "_publicPercentFee",
          "type": "uint256"
        },
        {
          "internalType": "uint256",
          "name": "_marketingPercentFee",
          "type": "uint256"
        },
        {
          "internalType": "uint256",
          "name": "_teamPercentFee",
          "type": "uint256"
        },
        {
          "internalType": "uint256",
          "name": "_bonusReferralPercentFee",
          "type": "uint256"
        },
        {
          "internalType": "uint256",
          "name": "_partnerAdvisorAddress",
          "type": "uint256"
        }
      ],
      "name": "setPercentFee",
      "outputs": [
        {
          "internalType": "bool",
          "name": "",
          "type": "bool"
        }
      ],
      "stateMutability": "nonpayable",
      "type": "function"
    },
    {
      "inputs": [
        {
          "internalType": "uint256",
          "name": "amount",
          "type": "uint256"
        }
      ],
      "name": "setPrivateSalePrice",
      "outputs": [
        {
          "internalType": "bool",
          "name": "",
          "type": "bool"
        }
      ],
      "stateMutability": "nonpayable",
      "type": "function"
    },
    {
      "inputs": [
        {
          "internalType": "uint256",
          "name": "amount",
          "type": "uint256"
        }
      ],
      "name": "setPublicSalePrice",
      "outputs": [
        {
          "internalType": "bool",
          "name": "",
          "type": "bool"
        }
      ],
      "stateMutability": "nonpayable",
      "type": "function"
    },
    {
      "inputs": [],
      "name": "startPrivateSale",
      "outputs": [
        {
          "internalType": "bool",
          "name": "",
          "type": "bool"
        }
      ],
      "stateMutability": "nonpayable",
      "type": "function"
    },
    {
      "inputs": [],
      "name": "stopPrivateSale",
      "outputs": [
        {
          "internalType": "bool",
          "name": "",
          "type": "bool"
        }
      ],
      "stateMutability": "nonpayable",
      "type": "function"
    },
    {
      "inputs": [],
      "name": "teamAddress",
      "outputs": [
        {
          "internalType": "address",
          "name": "",
          "type": "address"
        }
      ],
      "stateMutability": "view",
      "type": "function"
    },
    {
      "inputs": [],
      "name": "tokenSold",
      "outputs": [
        {
          "internalType": "uint256",
          "name": "",
          "type": "uint256"
        }
      ],
      "stateMutability": "view",
      "type": "function"
    },
    {
      "inputs": [
        {
          "internalType": "address",
          "name": "newOwner",
          "type": "address"
        }
      ],
      "name": "transferOwnership",
      "outputs": [],
      "stateMutability": "nonpayable",
      "type": "function"
    },
    {
      "inputs": [],
      "name": "withdraw",
      "outputs": [
        {
          "internalType": "bool",
          "name": "",
          "type": "bool"
        }
      ],
      "stateMutability": "nonpayable",
      "type": "function"
    }
  ],
  "bytecode": {
    "object": "0x60806040526611c37937e08000600355662386f26fc100006004556032600555600f6006556012600755600960085560086009553480156200004057600080fd5b5060405162000f7738038062000f7783398101604081905262000063916200013c565b6200006e33620000cf565b600d80546001600160a01b03199081166001600160a01b0394851617909155600c8054821696841696909617909555600b8054861694831694909417909355600e8054851692821692909217909155600f80549093169116179055620001ac565b600080546001600160a01b038381166001600160a01b0319831681178455604051919092169283917f8be0079c531659141344cd1fd0a4f28419497f9722a3daafe3b4186f6b6457e09190a35050565b80516001600160a01b03811681146200013757600080fd5b919050565b600080600080600060a086880312156200015557600080fd5b62000160866200011f565b945062000170602087016200011f565b935062000180604087016200011f565b925062000190606087016200011f565b9150620001a0608087016200011f565b90509295509295909350565b610dbb80620001bc6000396000f3fe6080604052600436106101405760003560e01c80637d90f943116100b6578063daf5372c1161006f578063daf5372c1461033f578063e2ae44a41461035f578063e45e8dbc1461037f578063f2fde38b1461039f578063f560d415146103bf578063f676f331146103d557600080fd5b80637d90f943146102a257806384170a1d146102b85780638da5cb5b146102d85780639b6860c8146102f6578063a5ece9411461030c578063d96a094a1461032c57600080fd5b80634e088eb7116101085780634e088eb7146101f257806351992fcb14610207578063519ee19e14610227578063715018a61461024b578063791a2519146102625780637bc36e041461028257600080fd5b806314be7793146101455780631c75f0851461017b578063338dbf59146101b3578063380d831b146101c85780633ccfd60b146101dd575b600080fd5b34801561015157600080fd5b5060015461016690600160a01b900460ff1681565b60405190151581526020015b60405180910390f35b34801561018757600080fd5b50600c5461019b906001600160a01b031681565b6040516001600160a01b039091168152602001610172565b3480156101bf57600080fd5b506101666103f5565b3480156101d457600080fd5b50610166610440565b3480156101e957600080fd5b5061016661056f565b3480156101fe57600080fd5b506101666106e8565b34801561021357600080fd5b50610166610222366004610c22565b610724565b34801561023357600080fd5b5061023d60025481565b604051908152602001610172565b34801561025757600080fd5b50610260610772565b005b34801561026e57600080fd5b5061016661027d366004610c52565b6107a8565b34801561028e57600080fd5b5061016661029d366004610c52565b6107dc565b3480156102ae57600080fd5b5061023d600a5481565b3480156102c457600080fd5b506101666102d3366004610c52565b610810565b3480156102e457600080fd5b506000546001600160a01b031661019b565b34801561030257600080fd5b5061023d60045481565b34801561031857600080fd5b50600b5461019b906001600160a01b031681565b61016661033a366004610c52565b610844565b34801561034b57600080fd5b50600f5461019b906001600160a01b031681565b34801561036b57600080fd5b50600e5461019b906001600160a01b031681565b34801561038b57600080fd5b5061016661039a366004610c6b565b610a43565b3480156103ab57600080fd5b506102606103ba366004610c22565b610a89565b3480156103cb57600080fd5b5061023d60035481565b3480156103e157600080fd5b50600d5461019b906001600160a01b031681565b600080546001600160a01b031633146104295760405162461bcd60e51b815260040161042090610ca6565b60405180910390fd5b506001805460ff60a01b1916600160a01b17815590565b600080546001600160a01b0316331461046b5760405162461bcd60e51b815260040161042090610ca6565b6001546040516370a0823160e01b81523060048201526000916001600160a01b0316906370a0823190602401602060405180830381865afa1580156104b4573d6000803e3d6000fd5b505050506040513d601f19601f820116820180604052508101906104d89190610cdb565b6001549091506001600160a01b03166323b872dd30336040516001600160e01b031960e085901b1681526001600160a01b03928316600482015291166024820152604481018490526064016020604051808303816000875af1158015610542573d6000803e3d6000fd5b505050506040513d601f19601f820116820180604052508101906105669190610cf4565b50600191505090565b600080546001600160a01b0316331461059a5760405162461bcd60e51b815260040161042090610ca6565b60008060008060006105aa610b24565b600d54604051959a50939850919650945092506001600160a01b03169086156108fc029087906000818181858888f193505050501580156105ef573d6000803e3d6000fd5b50600b546040516001600160a01b039091169085156108fc029086906000818181858888f1935050505015801561062a573d6000803e3d6000fd5b50600c546040516001600160a01b039091169084156108fc029085906000818181858888f19350505050158015610665573d6000803e3d6000fd5b50600f546040516001600160a01b039091169083156108fc029084906000818181858888f193505050501580156106a0573d6000803e3d6000fd5b50600e546040516001600160a01b039091169082156108fc029083906000818181858888f193505050501580156106db573d6000803e3d6000fd5b5060019550505050505090565b600080546001600160a01b031633146107135760405162461bcd60e51b815260040161042090610ca6565b506001805460ff60a01b1916815590565b600080546001600160a01b0316331461074f5760405162461bcd60e51b815260040161042090610ca6565b50600180546001600160a01b0383166001600160a01b0319909116178155919050565b6000546001600160a01b0316331461079c5760405162461bcd60e51b815260040161042090610ca6565b6107a66000610bd2565b565b600080546001600160a01b031633146107d35760405162461bcd60e51b815260040161042090610ca6565b50600455600190565b600080546001600160a01b031633146108075760405162461bcd60e51b815260040161042090610ca6565b50600355600190565b600080546001600160a01b0316331461083b5760405162461bcd60e51b815260040161042090610ca6565b50600a55600190565b600180546000918291600160a01b900460ff161515900361089f57346003546103e86108709190610d2c565b61087a9190610d4b565b9050600a5481101561089f57604051633fa079dd60e11b815260040160405180910390fd5b600154600160a01b900460ff1615156000036108d357346004546103e86108c69190610d2c565b6108d09190610d4b565b90505b6001546040516370a0823160e01b815230600482015282916001600160a01b0316906370a0823190602401602060405180830381865afa15801561091b573d6000803e3d6000fd5b505050506040513d601f19601f8201168201806040525081019061093f9190610cdb565b101561095e57604051632d65aa3b60e11b815260040160405180910390fd5b6001546001600160a01b03166323b872dd30336040516001600160e01b031960e085901b1681526001600160a01b03928316600482015291166024820152604481018490526064016020604051808303816000875af11580156109c5573d6000803e3d6000fd5b505050506040513d601f19601f820116820180604052508101906109e99190610cf4565b5080600260008282546109fc9190610d6d565b909155505060408051338152602081018390527ffe2ff4cf36ff7d2c2b06eb960897ee0d76d9c3e58da12feb7b93e86b226dd344910160405180910390a150600192915050565b600080546001600160a01b03163314610a6e5760405162461bcd60e51b815260040161042090610ca6565b50600594909455600692909255600755600955600855600190565b6000546001600160a01b03163314610ab35760405162461bcd60e51b815260040161042090610ca6565b6001600160a01b038116610b185760405162461bcd60e51b815260206004820152602660248201527f4f776e61626c653a206e6577206f776e657220697320746865207a65726f206160448201526564647265737360d01b6064820152608401610420565b610b2181610bd2565b50565b60008060008060008047905060006064600554610b419190610d4b565b610b4b9083610d2c565b905060006064600654610b5e9190610d4b565b610b689084610d2c565b905060006064600754610b7b9190610d4b565b610b859085610d2c565b905060006064600954610b989190610d4b565b610ba29086610d2c565b905060006064600854610bb59190610d4b565b610bbf9087610d2c565b949b939a50919850965091945092505050565b600080546001600160a01b038381166001600160a01b0319831681178455604051919092169283917f8be0079c531659141344cd1fd0a4f28419497f9722a3daafe3b4186f6b6457e09190a35050565b600060208284031215610c3457600080fd5b81356001600160a01b0381168114610c4b57600080fd5b9392505050565b600060208284031215610c6457600080fd5b5035919050565b600080600080600060a08688031215610c8357600080fd5b505083359560208501359550604085013594606081013594506080013592509050565b6020808252818101527f4f776e61626c653a2063616c6c6572206973206e6f7420746865206f776e6572604082015260600190565b600060208284031215610ced57600080fd5b5051919050565b600060208284031215610d0657600080fd5b81518015158114610c4b57600080fd5b634e487b7160e01b600052601160045260246000fd5b6000816000190483118215151615610d4657610d46610d16565b500290565b600082610d6857634e487b7160e01b600052601260045260246000fd5b500490565b60008219821115610d8057610d80610d16565b50019056fea26469706673582212207e519347ed4a8b1dee36640dc76c6e581e1afb730dc8cf28fe33fe0f869f7c7164736f6c634300080d0033",
    "linkReferences": {}
  }
}